:100000000C942A000C9447000C9447000C94470071
:100010000C9447000C9447000C9447000C94470044
:100020000C9447000C9447000C9447000C94470034
:100030000C9447000C9447000C9447000C94470024
:100040000C9447000C9447000C9447000C94470014
:100050000C94470011241FBECFE5D8E0DEBFCDBF12
:1000600010E0A0E6B0E0E0E8F9E002C005900D92F3
:10007000A439B107D9F721E0A4E9B0E001C01D928D
:10008000A636B207E1F70E9489000C94BE040C94D6
:10009000000060E082E00E940D01089560E670E0DB
:1000A0000E94B504892B91F461E082E00E940D0169
:1000B00064EF71E080E090E00E945D0146E150E075
:1000C0006EE670E081E990E00E94470308954EE4F7
:1000D00050E069E470E081E990E00E941003811132
:1000E0000CC060E070E082E090E00E94830061E07C
:1000F00070E082E090E00E948300089581E990E042
:100100000E946E03089541E00E948E00811181E0FB
:1001100008950E9467000E947E00FDCF442319F0DD
:100120004130E9F174C0813099F028F08230E9F073
:10013000833041F16EC02AB381E090E002C0880FA5
:10014000991F6A95E2F7809582238ABB80E0089523
:1001500027B381E090E002C0880F991F6A95E2F70B
:100160008095822387BB80E0089524B381E090E0EE
:1001700002C0880F991F6A95E2F78095822384BB9D
:1001800080E0089521B381E090E002C0880F991FBC
:100190006A95E2F78095822381BB80E008958130E3
:1001A00091F028F08230D9F0833029F134C02AB39D
:1001B00081E090E002C0880F991F6A95E2F7822BD8
:1001C0008ABB80E0089527B381E090E002C0880FE9
:1001D000991F6A95E2F7822B87BB80E0089524B3CC
:1001E00081E090E002C0880F991F6A95E2F7822BA8
:1001F00084BB80E0089521B381E090E002C0880FC5
:10020000991F6A95E2F7822B81BB80E0089581E017
:10021000089581E0089581E00895813091F028F0FB
:100220008230D9F0833029F130C02BB381E090E0E7
:1002300002C0880F991F6A95E2F782278BBB80E086
:10024000089528B381E090E002C0880F991F6A9555
:10025000E2F7822788BB80E0089525B381E090E033
:1002600002C0880F991F6A95E2F7822785BB80E05C
:10027000089522B381E090E002C0880F991F6A952B
:10028000E2F7822782BB80E0089581E0089583B77A
:10029000816083BF83B78D7F83BF83B78B7F83BF2D
:1002A00080E0089583B78E7F83BF83B78D7F83BF40
:1002B00083B78B7F83BF80E008950E9427042FE6D9
:1002C00032E143E85CE30E9486030E94F8036093F6
:1002D000940070939500809396009093970012BEBF
:1002E0000E94470140E050E0BA010AC008B600FE93
:1002F000FDCF88B7816088BF4F5F5F4F6F4F7F4FE3
:100300008091940090919500A0919600B0919700F3
:10031000481759076A077B0748F310929400109218
:10032000950010929600109297000E94520180E072
:100330000895CF93DF93EC0141E061E083E00E94F8
:100340008E0040E060E083E00E948E008C8182306D
:1003500019F483E389B90DC0813019F48FEC89B9A0
:1003600008C0811102C019B804C0833011F487E0BD
:1003700089B98AB188608AB98AB180618AB980B541
:10038000806880BD898181110AC080B58D7F80BD64
:1003900080B58B7F80BD8AB18B7F8AB92FC08130B9
:1003A00051F480B5826080BD80B58B7F80BD8AB1FD
:1003B0008B7F8AB923C0823051F480B58D7F80BD98
:1003C00080B5846080BD8AB18B7F8AB917C08330C5
:1003D00051F480B5826080BD80B5846080BD8AB1F3
:1003E0008B7F8AB90BC0843049F480B5826080BDB0
:1003F00080B5846080BD8AB184608AB98A818111A8
:1004000007C080B58F7E80BD80B58F7D80BD11C057
:10041000813039F480B58F7E80BD80B5806280BD2B
:1004200008C0823031F480B5806180BD80B58062C3
:1004300080BD8B81811104C080B5877F80BD05C0E0
:10044000813019F480B5886080BD80B58F7B80BD18
:1004500080B5806480BD8881813021F48BB1826059
:100460008BB905C0811103C08BB18D7F8BB98BB166
:100470008E7F8BB98E81811104C08AB180688AB960
:1004800005C0813019F48AB18F778AB98D818111C5
:1004900004C08AB180648AB905C0813019F48AB178
:1004A0008F7B8AB98F81811104C08AB180628AB939
:1004B00005C0813019F48AB18F7D8AB980E0DF915F
:1004C000CF9108955D9BFECF8CB980E00895EF92A7
:1004D000FF920F931F93CF938C017B01C0E003C069
:1004E0000E946202CF5FF801EC0FF11D8081811143
:1004F000F7CFF0929D00E0929C00CF911F910F9159
:10050000FF90EF9008955F9BFECF2CB1FC012083FC
:1005100080E00895CF93DF93009709F479C0EC0150
:100520005E9B0BC020919A0030919B0080919C00B3
:1005300090919D002817390760F080919A00909162
:100540009B00892BE1F480919C0090919D00892B68
:10055000B1F08BB180648BB9E0919A00F0919B006F
:10056000EE5FFE4F808190E00E94340380919A00FC
:1005700090919B00019690939B0080939A005F9BC3
:1005800011C0809198009091990082569F4F0E94CF
:100590005B03809198009091990001969093990047
:1005A0008093980080919A0090919B00009791F021
:1005B00020919C0030919D008217930759F4E885A3
:1005C000F985099510929B0010929A0010929D0057
:1005D00010929C00609198007091990061157105CE
:1005E000C9F0CB010197FC01E256FF4F20812D306D
:1005F00099F4FC01E256FF4F1082EA85FB858EE9F3
:1006000090E00995109299001092980080E005C042
:1006100081E003C080E001C080E0DF91CF910895C8
:100620000097E1F0FC012081211112C0A181B2816B
:100630001B965C934E931A97A181B28119967C9375
:100640006E931897818192810E94990180E00895AC
:10065000223031F0213031F08BE0089581E00895AF
:1006600080E0089580E00895FC019081911105C01B
:10067000862F0E94620280E00895923021F091302E
:1006800021F08BE0089580E0089580E00895FC015A
:100690009081911106C0CB01BA010E94670280E0EF
:1006A0000895923021F0913021F08BE0089580E0A0
:1006B000089580E00895FC019081911105C0CB015F
:1006C0000E94830280E00895923021F0913021F061
:1006D0008BE0089580E0089580E00895009781F010
:1006E000FC012081211106C0818192810E948A0231
:1006F00080E00895223031F0213031F08BE0089510
:1007000081E0089580E0089580E008950E949A03B2
:100710000C947B040E94740458F00E946D0440F015
:1007200029F45F3F29F00C94640451110C94AF0438
:100730000C946A040E948C0468F39923B1F3552346
:1007400091F3951B550BBB27AA27621773078407E4
:1007500038F09F5F5F4F220F331F441FAA1FA9F37A
:1007600035D00E2E3AF0E0E832D091505040E69568
:10077000001CCAF72BD0FE2F29D0660F771F881FC9
:10078000BB1F261737074807AB07B0E809F0BB0BBC
:10079000802DBF01FF2793585F4F3AF09E3F5105D0
:1007A00078F00C9464040C94AF045F3FE4F3983E3B
:1007B000D4F3869577956795B795F7959F5FC9F7B9
:1007C000880F911D9695879597F90895E1E0660F3A
:1007D000771F881FBB1F621773078407BA0720F0B3
:1007E000621B730B840BBA0BEE1F88F7E09508951C
:1007F0000E94940488F09F5798F0B92F9927B75119
:10080000B0F0E1F0660F771F881F991F1AF0BA95B4
:10081000C9F714C0B13091F00E94AE04B1E0089560
:100820000C94AE04672F782F8827B85F39F0B93F52
:10083000CCF3869577956795B395D9F73EF4909567
:100840008095709561957F4F8F4F9F4F0895E894E5
:1008500009C097FB3EF490958095709561957F4F08
:100860008F4F9F4F9923A9F0F92F96E9BB279395B6
:10087000F695879577956795B795F111F8CFFAF4C6
:10088000BB0F11F460FF1BC06F5F7F4F8F4F9F4FF7
:1008900016C0882311F096E911C0772321F09EE855
:1008A000872F762F05C0662371F096E8862F70E0BB
:1008B00060E02AF09A95660F771F881FDAF7880F95
:1008C0009695879597F9089597F99F6780E870E066
:1008D00060E008959FEF80EC089500240A941616B6
:1008E000170618060906089500240A94121613061E
:1008F000140605060895092E0394000C11F48823AC
:1009000052F0BB0F40F4BF2B11F460FF04C06F5FC7
:100910007F4F8F4F9F4F089557FD9058440F551F9D
:1009200059F05F3F71F04795880F97FB991F61F071
:100930009F3F79F087950895121613061406551FE8
:10094000F2CF4695F1DF08C0161617061806991F54
:10095000F1CF86957105610508940895E894BB2749
:1009600066277727CB0197F90895FB01DC018D916C
:10097000019080190110D9F3990B0895F894FFCFD5
:1009800042434D204F7065726174696E6700436F1A
:100990006E6669726D2042434D206F70657261749E
:1009A000696E670D000003020002010101000000F2
:0409B00000008500BE
:00000001FF
