:100000000C942A000C9447000C9447000C94470071
:100010000C9447000C9447000C9447000C94470044
:100020000C9447000C9447000C9447000C94470034
:100030000C9447000C9447000C9447000C94470024
:100040000C9447000C9447000C9447000C94470014
:100050000C94470011241FBECFE5D8E0DEBFCDBF12
:1000600010E0A0E6B0E0E0E9F9E002C005900D92F2
:10007000A639B107D9F721E0A6E9B0E001C01D9289
:10008000A836B207E1F70E9484000C94C6040C94D1
:10009000000060E082E00E94F902089561E770E0EC
:1000A0000E94BD04892B21F461E082E00E94F902E4
:1000B0000895E0E6F0E08EE490E0908B878789E495
:1000C00090E096878587CF010E94890081110AC040
:1000D00041E060E082E00E947A0241E061E082E07B
:1000E0000E947A0268EE73E080E090E00E9449038B
:1000F0006EE070E087E890E00E94EB01089580E6F2
:1001000090E00E94FF0108950E9459000E947F0024
:10011000FDCFFC01892B09F448C18081811147C1C1
:100120008181813021F48BB18D7F8BB905C0811124
:1001300040C18BB182608BB98281811107C08FB7BA
:1001400080688FBF8AB180688AB906C0813009F0A3
:1001500032C18AB18F778AB98381811107C08FB785
:1001600080688FBF8AB180648AB906C0813009F087
:1001700024C18AB18F7B8AB98481811107C08FB76E
:1001800080688FBF8AB180628AB906C0813009F069
:1001900016C18AB18F7D8AB98581811104C08AB167
:1001A00080618AB906C0813009F00BC18AB18F7EA7
:1001B0008AB98681811104C08AB188608AB906C073
:1001C000813009F000C18AB1877F8AB987818111A6
:1001D0000AC080B5806880BD80B58F7D80BD80B548
:1001E0008F7E80BD18C0813051F480B5806880BD9D
:1001F00080B5806280BD80B58F7E80BD0CC08230AE
:1002000009F0E3C080B5806880BD80B5806280BDA4
:1002100080B5806180BD8085811107C080B5806810
:1002200080BD80B5877F80BD0EC0813039F480B538
:10023000806880BD80B5886080BD05C080B580685D
:1002400080BD89E0089580B58F7780BD818581115B
:100250000BC08181813019F48FEC90E002C08FE9EE
:1002600091E090BD89B98CC0813059F48181813091
:1002700019F487E690E002C08FEC90E090BD89B958
:100280007FC0823059F48181813019F483E390E09A
:1002900002C087E690E090BD89B972C0833059F4FE
:1002A0008181813019F481E290E002C084E490E021
:1002B00090BD89B965C0843059F48181813019F4C9
:1002C00089E190E002C083E390E090BD89B958C015
:1002D000853059F48181813019F480E190E002C0C9
:1002E00081E290E090BD89B94BC0863059F481819C
:1002F000813019F48CE090E002C089E190E090BD7B
:1003000089B93EC0873059F48181813019F487E082
:1003100090E002C080E190E090BD89B931C08830A2
:1003200059F48181813019F485E090E002C08CE0BD
:1003300090E090BD89B924C0893059F48181813021
:1003400019F483E090E002C087E090E090BD89B9A5
:1003500017C08A3051F48181813011F490E002C0DD
:1003600083E090E090BD89B90BC08B3081F581812D
:10037000813011F490E002C083E090E090BD89B933
:1003800080B5806880BD80B5826080BD80B58460A6
:1003900080BD80B58F7B80BD8AB18B7F8AB981E0BB
:1003A00082871386148680E0089581E0089580E0B6
:1003B000089582E0089583E0089584E0089585E03B
:1003C000089586E0089587E0089588E008958AE01A
:1003D00008958CB90895CF93DF93EB01AB01BC0175
:1003E00084E091E00E94B404D0939B00C0939A00F3
:1003F000DF91CF9108952CB1FC0120830895CF9314
:10040000DF93EC015E9B0BC0209198003091990026
:1004100080919A0090919B002817390760F0809195
:10042000980090919900892BD9F480919A0090912D
:100430009B00892BA9F08BB180648BB9E091980067
:10044000F0919900EC5FFE4F80810E94E90180915C
:10045000980090919900019690939900809398004C
:100460005F9B11C0809196009091970080569F4F9E
:100470000E94FB01809196009091970001969093C5
:100480009700809396008091980090919900009732
:1004900091F020919A0030919B008217930759F4B4
:1004A000ED85FE85099510929900109298001092A2
:1004B0009B0010929A0060919600709197006115D0
:1004C0007105A9F0CB010197FC01E056FF4F208197
:1004D0002D3069F4FC01E056FF4F1082EF85F8895A
:1004E00080EA90E009951092970010929600DF91B3
:1004F000CF910895442319F04130E9F174C081305F
:1005000099F028F08230E9F0833041F16EC02AB3CF
:1005100081E090E002C0880F991F6A95E2F780950C
:1005200082238ABB80E0089527B381E090E002C077
:10053000880F991F6A95E2F78095822387BB80E038
:10054000089524B381E090E002C0880F991F6A9556
:10055000E2F78095822384BB80E0089521B381E097
:1005600090E002C0880F991F6A95E2F78095822378
:1005700081BB80E00895813091F028F08230D9F07D
:10058000833029F134C02AB381E090E002C0880FA3
:10059000991F6A95E2F7822B8ABB80E0089527B302
:1005A00081E090E002C0880F991F6A95E2F7822BE4
:1005B00087BB80E0089524B381E090E002C0880FFB
:1005C000991F6A95E2F7822B84BB80E0089521B3DE
:1005D00081E090E002C0880F991F6A95E2F7822BB4
:1005E00081BB80E0089581E0089581E0089581E075
:1005F0000895813091F028F08230D9F0833029F1CC
:1006000030C02BB381E090E002C0880F991F6A953B
:10061000E2F782278BBB80E0089528B381E090E069
:1006200002C0880F991F6A95E2F7822788BB80E095
:10063000089525B381E090E002C0880F991F6A9564
:10064000E2F7822785BB80E0089522B381E090E045
:1006500002C0880F991F6A95E2F7822782BB80E06B
:10066000089581E0089583B7816083BF83B78D7F4C
:1006700083BF83B78B7F83BF80E0089583B78E7F6E
:1006800083BF83B78D7F83BF83B78B7F83BF80E0BA
:1006900008950E9426042FE632E143E85CE30E94BD
:1006A00085030E94F70360939C0070939D008093E4
:1006B0009E0090939F0012BE0E94330340E050E0E2
:1006C000BA010AC008B600FEFDCF88B7816088BFB6
:1006D0004F5F5F4F6F4F7F4F80919C0090919D00C7
:1006E000A0919E00B0919F00481759076A077B07A9
:1006F00048F310929C0010929D0010929E00109260
:100700009F000E943E0380E008950E9499030C948C
:100710007A040E94730458F00E946C0440F029F49B
:100720005F3F29F00C94630451110C94AE040C94B7
:1007300069040E948B0468F39923B1F3552391F364
:10074000951B550BBB27AA2762177307840738F040
:100750009F5F5F4F220F331F441FAA1FA9F335D09D
:100760000E2E3AF0E0E832D091505040E695001C51
:10077000CAF72BD0FE2F29D0660F771F881FBB1F0B
:10078000261737074807AB07B0E809F0BB0B802DE9
:10079000BF01FF2793585F4F3AF09E3F510578F015
:1007A0000C9463040C94AE045F3FE4F3983ED4F3DE
:1007B000869577956795B795F7959F5FC9F7880FE9
:1007C000911D9695879597F90895E1E0660F771F3B
:1007D000881FBB1F621773078407BA0720F0621BCC
:1007E000730B840BBA0BEE1F88F7E09508950E94F7
:1007F000930488F09F5798F0B92F9927B751B0F01C
:10080000E1F0660F771F881F991F1AF0BA95C9F794
:1008100014C0B13091F00E94AD04B1E008950C9481
:10082000AD04672F782F8827B85F39F0B93FCCF334
:10083000869577956795B395D9F73EF49095809511
:10084000709561957F4F8F4F9F4F0895E89409C031
:1008500097FB3EF490958095709561957F4F8F4FF3
:100860009F4F9923A9F0F92F96E9BB279395F69509
:10087000879577956795B795F111F8CFFAF4BB0F87
:1008800011F460FF1BC06F5F7F4F8F4F9F4F16C0EB
:10089000882311F096E911C0772321F09EE8872F75
:1008A000762F05C0662371F096E8862F70E060E031
:1008B0002AF09A95660F771F881FDAF7880F9695AA
:1008C000879597F9089597F99F6780E870E060E051
:1008D00008959FEF80EC089500240A9416161706D9
:1008E00018060906089500240A9412161306140621
:1008F00005060895092E0394000C11F4882352F084
:10090000BB0F40F4BF2B11F460FF04C06F5F7F4F3B
:100910008F4F9F4F089557FD9058440F551F59F022
:100920005F3F71F04795880F97FB991F61F09F3FDC
:1009300079F087950895121613061406551FF2CF05
:100940004695F1DF08C0161617061806991FF1CF55
:1009500086957105610508940895E894BB2766277C
:100960007727CB0197F90895FB01DC0102C00190C4
:100970000D9241505040D8F70895FB01DC018D9154
:10098000019080190110D9F3990B0895F894FFCFC5
:100990000001010101000000000200000000000051
:1009A00000436F6E6669726D2042434D206F706523
:1009B000726174696E670042434D204F70657261C9
:0609C00074696E670D0072
:00000001FF
